S01700004763634170706C69636174696F6E312E737265635B
S11300000C9434000C943E000C943E000C943E007E
S11300100C943E000C943E000C943E000C943E0064
S11300200C943E000C943E000C943E000C943E0054
S11300300C943E000C943E000C943E000C943E0044
S11300400C943E000C943E000C943E000C943E0034
S11300500C943E000C943E000C943E000C943E0024
S11300600C943E000C943E0011241FBECFEFD8E048
S1130070DEBFCDBF0E9444000C9466000C940000C7
S113008084B1866084B908950E9440000E944900AA
S1130090FFCFE0E8F0E08081826E8083E1E8F0E069
S11300A080818161808384E690E0909387008093CF
S11300B0860082E390E090938900809388008CE32B
S11300C090E090938B0080938A000895F894FFCF7A
S9030000FC
