:100000000C9434000C943E000C943E000C943E0082
:100010000C943E000C943E000C943E000C943E0068
:100020000C943E000C943E000C943E000C943E0058
:100030000C943E000C943E000C943E000C943E0048
:100040000C943E000C943E000C943E000C943E0038
:100050000C943E000C943E000C943E000C943E0028
:100060000C943E000C943E0011241FBECFEFD8E04C
:10007000DEBFCDBF0E9444000C9499000C94000098
:1000800084B1866084B908950E9440000E947E0079
:10009000E4E8F0E081E060E00CC0208131812233AF
:1000A000310508F02A98208131812333310508F485
:1000B0002A9A2081318140815181982F2233310544
:1000C00008F4962F992339F0982F4D33510508F0F5
:1000D000962F9111E2CF2081318140815181982F5B
:1000E0002333310508F0962F992319F3982F4832BE
:1000F000510508F4962F9111D0CFDBCFE0E8F0E066
:100100008081826E8083E1E8F0E08081816180837C
:1001100084E690E0909387008093860082E390E0ED
:10012000909389008093880090938B0080938A003D
:060130000895F894FFCFD2
:00000001FF
