:100000000C9434000C943E000C943E000C943E0082
:100010000C943E000C943E000C943E000C943E0068
:100020000C943E000C943E000C943E000C943E0058
:100030000C943E000C943E000C943E000C943E0048
:100040000C943E000C943E000C943E000C943E0038
:100050000C943E000C943E000C943E000C943E0028
:100060000C943E000C943E0011241FBECFEFD8E04C
:10007000DEBFCDBF0E9444000C9464000C940000CD
:1000800084B1866084B908950E9440000E944900AE
:10009000FFCFE0E8F0E08081826E8083E1E8F0E06D
:1000A00080818161808380E293E0909387008093D8
:1000B000860080E991E09093890080938800909376
:0C00C0008B0080938A000895F894FFCF15
:00000001FF
