:100000000C9434000C943E000C943E000C943E0082
:100010000C943E000C943E000C943E000C943E0068
:100020000C943E000C943E000C943E000C943E0058
:100030000C943E000C943E000C943E000C943E0048
:100040000C943E000C943E000C943E000C943E0038
:100050000C943E000C943E000C943E000C943E0028
:100060000C943E000C943E0011241FBECFEFD8E04C
:10007000DEBFCDBF0E9444000C9472000C940000BF
:1000800084B1866084B908950E9440000E944900AE
:10009000FFCFE0E8F0E0808182608083A1E8B0E0FB
:1000A0008C9180618C938081806880838081806462
:1000B00080838081806280838C9181608C9380E2D8
:1000C00093E0909387008093860080E991E090937D
:1000D00089008093880080E491E090938B00809366
:0800E0008A000895F894FFCF97
:00000001FF
